{
  "contractName": "MyMoonBirds",
  "abi": [
    {
      "inputs": [],
      "stateMutability": "nonpayable",
      "type": "constructor"
    },
    {
      "anonymous": false,
      "inputs": [
        {
          "indexed": true,
          "internalType": "address",
          "name": "owner",
          "type": "address"
        },
        {
          "indexed": true,
          "internalType": "address",
          "name": "approved",
          "type": "address"
        },
        {
          "indexed": true,
          "internalType": "uint256",
          "name": "tokenId",
          "type": "uint256"
        }
      ],
      "name": "Approval",
      "type": "event"
    },
    {
      "anonymous": false,
      "inputs": [
        {
          "indexed": true,
          "internalType": "address",
          "name": "owner",
          "type": "address"
        },
        {
          "indexed": true,
          "internalType": "address",
          "name": "operator",
          "type": "address"
        },
        {
          "indexed": false,
          "internalType": "bool",
          "name": "approved",
          "type": "bool"
        }
      ],
      "name": "ApprovalForAll",
      "type": "event"
    },
    {
      "anonymous": false,
      "inputs": [
        {
          "indexed": true,
          "internalType": "address",
          "name": "previousOwner",
          "type": "address"
        },
        {
          "indexed": true,
          "internalType": "address",
          "name": "newOwner",
          "type": "address"
        }
      ],
      "name": "OwnershipTransferred",
      "type": "event"
    },
    {
      "anonymous": false,
      "inputs": [
        {
          "indexed": true,
          "internalType": "address",
          "name": "from",
          "type": "address"
        },
        {
          "indexed": true,
          "internalType": "address",
          "name": "to",
          "type": "address"
        },
        {
          "indexed": true,
          "internalType": "uint256",
          "name": "tokenId",
          "type": "uint256"
        }
      ],
      "name": "Transfer",
      "type": "event"
    },
    {
      "inputs": [
        {
          "internalType": "address",
          "name": "to",
          "type": "address"
        },
        {
          "internalType": "uint256",
          "name": "tokenId",
          "type": "uint256"
        }
      ],
      "name": "approve",
      "outputs": [],
      "stateMutability": "nonpayable",
      "type": "function"
    },
    {
      "inputs": [
        {
          "internalType": "address",
          "name": "owner",
          "type": "address"
        }
      ],
      "name": "balanceOf",
      "outputs": [
        {
          "internalType": "uint256",
          "name": "",
          "type": "uint256"
        }
      ],
      "stateMutability": "view",
      "type": "function",
      "constant": true
    },
    {
      "inputs": [
        {
          "internalType": "uint256",
          "name": "tokenId",
          "type": "uint256"
        }
      ],
      "name": "getApproved",
      "outputs": [
        {
          "internalType": "address",
          "name": "",
          "type": "address"
        }
      ],
      "stateMutability": "view",
      "type": "function",
      "constant": true
    },
    {
      "inputs": [
        {
          "internalType": "address",
          "name": "owner",
          "type": "address"
        },
        {
          "internalType": "address",
          "name": "operator",
          "type": "address"
        }
      ],
      "name": "isApprovedForAll",
      "outputs": [
        {
          "internalType": "bool",
          "name": "",
          "type": "bool"
        }
      ],
      "stateMutability": "view",
      "type": "function",
      "constant": true
    },
    {
      "inputs": [],
      "name": "name",
      "outputs": [
        {
          "internalType": "string",
          "name": "",
          "type": "string"
        }
      ],
      "stateMutability": "view",
      "type": "function",
      "constant": true
    },
    {
      "inputs": [
        {
          "internalType": "uint256",
          "name": "",
          "type": "uint256"
        }
      ],
      "name": "nftURIs",
      "outputs": [
        {
          "internalType": "string",
          "name": "",
          "type": "string"
        }
      ],
      "stateMutability": "view",
      "type": "function",
      "constant": true
    },
    {
      "inputs": [],
      "name": "owner",
      "outputs": [
        {
          "internalType": "address",
          "name": "",
          "type": "address"
        }
      ],
      "stateMutability": "view",
      "type": "function",
      "constant": true
    },
    {
      "inputs": [
        {
          "internalType": "uint256",
          "name": "tokenId",
          "type": "uint256"
        }
      ],
      "name": "ownerOf",
      "outputs": [
        {
          "internalType": "address",
          "name": "",
          "type": "address"
        }
      ],
      "stateMutability": "view",
      "type": "function",
      "constant": true
    },
    {
      "inputs": [],
      "name": "renounceOwnership",
      "outputs": [],
      "stateMutability": "nonpayable",
      "type": "function"
    },
    {
      "inputs": [
        {
          "internalType": "address",
          "name": "from",
          "type": "address"
        },
        {
          "internalType": "address",
          "name": "to",
          "type": "address"
        },
        {
          "internalType": "uint256",
          "name": "tokenId",
          "type": "uint256"
        }
      ],
      "name": "safeTransferFrom",
      "outputs": [],
      "stateMutability": "nonpayable",
      "type": "function"
    },
    {
      "inputs": [
        {
          "internalType": "address",
          "name": "from",
          "type": "address"
        },
        {
          "internalType": "address",
          "name": "to",
          "type": "address"
        },
        {
          "internalType": "uint256",
          "name": "tokenId",
          "type": "uint256"
        },
        {
          "internalType": "bytes",
          "name": "data",
          "type": "bytes"
        }
      ],
      "name": "safeTransferFrom",
      "outputs": [],
      "stateMutability": "nonpayable",
      "type": "function"
    },
    {
      "inputs": [
        {
          "internalType": "address",
          "name": "operator",
          "type": "address"
        },
        {
          "internalType": "bool",
          "name": "approved",
          "type": "bool"
        }
      ],
      "name": "setApprovalForAll",
      "outputs": [],
      "stateMutability": "nonpayable",
      "type": "function"
    },
    {
      "inputs": [
        {
          "internalType": "bytes4",
          "name": "interfaceId",
          "type": "bytes4"
        }
      ],
      "name": "supportsInterface",
      "outputs": [
        {
          "internalType": "bool",
          "name": "",
          "type": "bool"
        }
      ],
      "stateMutability": "view",
      "type": "function",
      "constant": true
    },
    {
      "inputs": [],
      "name": "symbol",
      "outputs": [
        {
          "internalType": "string",
          "name": "",
          "type": "string"
        }
      ],
      "stateMutability": "view",
      "type": "function",
      "constant": true
    },
    {
      "inputs": [
        {
          "internalType": "address",
          "name": "from",
          "type": "address"
        },
        {
          "internalType": "address",
          "name": "to",
          "type": "address"
        },
        {
          "internalType": "uint256",
          "name": "tokenId",
          "type": "uint256"
        }
      ],
      "name": "transferFrom",
      "outputs": [],
      "stateMutability": "nonpayable",
      "type": "function"
    },
    {
      "inputs": [
        {
          "internalType": "address",
          "name": "newOwner",
          "type": "address"
        }
      ],
      "name": "transferOwnership",
      "outputs": [],
      "stateMutability": "nonpayable",
      "type": "function"
    },
    {
      "inputs": [
        {
          "internalType": "string",
          "name": "uri",
          "type": "string"
        }
      ],
      "name": "safeMint",
      "outputs": [],
      "stateMutability": "payable",
      "type": "function",
      "payable": true
    },
    {
      "inputs": [],
      "name": "getNftUris",
      "outputs": [
        {
          "internalType": "string[]",
          "name": "",
          "type": "string[]"
        }
      ],
      "stateMutability": "view",
      "type": "function",
      "constant": true
    },
    {
      "inputs": [
        {
          "internalType": "uint256",
          "name": "tokenId",
          "type": "uint256"
        }
      ],
      "name": "tokenURI",
      "outputs": [
        {
          "internalType": "string",
          "name": "",
          "type": "string"
        }
      ],
      "stateMutability": "view",
      "type": "function",
      "constant": true
    }
  ],
  "bytecode": "0x60806040523480156200001157600080fd5b506040518060400160405280600b81526020017f4d794d6f6f6e42697264730000000000000000000000000000000000000000008152506040518060400160405280600381526020017f4d4d42000000000000000000000000000000000000000000000000000000000081525081600090816200008f919062000412565b508060019081620000a1919062000412565b505050620000c4620000b8620000ca60201b60201c565b620000d260201b60201c565b620004f9565b600033905090565b6000600760009054906101000a900473ffffffffffffffffffffffffffffffffffffffff16905081600760006101000a81548173ffffffffffffffffffffffffffffffffffffffff021916908373ffffffffffffffffffffffffffffffffffffffff1602179055508173ffffffffffffffffffffffffffffffffffffffff168173ffffffffffffffffffffffffffffffffffffffff167f8be0079c531659141344cd1fd0a4f28419497f9722a3daafe3b4186f6b6457e060405160405180910390a35050565b600081519050919050565b7f4e487b7100000000000000000000000000000000000000000000000000000000600052604160045260246000fd5b7f4e487b7100000000000000000000000000000000000000000000000000000000600052602260045260246000fd5b600060028204905060018216806200021a57607f821691505b60208210810362000230576200022f620001d2565b5b50919050565b60008190508160005260206000209050919050565b60006020601f8301049050919050565b600082821b905092915050565b6000600883026200029a7fffffffffffffffffffffffffffffffffffffffffffffffffffffffffffffffff826200025b565b620002a686836200025b565b95508019841693508086168417925050509392505050565b6000819050919050565b6000819050919050565b6000620002f3620002ed620002e784620002be565b620002c8565b620002be565b9050919050565b6000819050919050565b6200030f83620002d2565b620003276200031e82620002fa565b84845462000268565b825550505050565b600090565b6200033e6200032f565b6200034b81848462000304565b505050565b5b8181101562000373576200036760008262000334565b60018101905062000351565b5050565b601f821115620003c2576200038c8162000236565b62000397846200024b565b81016020851015620003a7578190505b620003bf620003b6856200024b565b83018262000350565b50505b505050565b600082821c905092915050565b6000620003e760001984600802620003c7565b1980831691505092915050565b6000620004028383620003d4565b9150826002028217905092915050565b6200041d8262000198565b67ffffffffffffffff811115620004395762000438620001a3565b5b62000445825462000201565b6200045282828562000377565b600060209050601f8311600181146200048a576000841562000475578287015190505b620004818582620003f4565b865550620004f1565b601f1984166200049a8662000236565b60005b82811015620004c4578489015182556001820191506020850194506020810190506200049d565b86831015620004e45784890151620004e0601f891682620003d4565b8355505b6001600288020188555050505b505050505050565b61330c80620005096000396000f3fe6080604052600436106101145760003560e01c806370a08231116100a0578063b88d4fde11610064578063b88d4fde146103a2578063c160591b146103cb578063c87b56dd146103f6578063e985e9c514610433578063f2fde38b1461047057610114565b806370a08231146102cf578063715018a61461030c5780638da5cb5b1461032357806395d89b411461034e578063a22cb4651461037957610114565b806323b872dd116100e757806323b872dd146101e75780634132ec8d1461021057806342842e0e1461024d5780636352211e14610276578063695850fb146102b357610114565b806301ffc9a71461011957806306fdde0314610156578063081812fc14610181578063095ea7b3146101be575b600080fd5b34801561012557600080fd5b50610140600480360381019061013b9190611ddb565b610499565b60405161014d9190611e23565b60405180910390f35b34801561016257600080fd5b5061016b61057b565b6040516101789190611ed7565b60405180910390f35b34801561018d57600080fd5b506101a860048036038101906101a39190611f2f565b61060d565b6040516101b59190611f9d565b60405180910390f35b3480156101ca57600080fd5b506101e560048036038101906101e09190611fe4565b610653565b005b3480156101f357600080fd5b5061020e60048036038101906102099190612024565b61076a565b005b34801561021c57600080fd5b5061023760048036038101906102329190611f2f565b6107ca565b6040516102449190611ed7565b60405180910390f35b34801561025957600080fd5b50610274600480360381019061026f9190612024565b610876565b005b34801561028257600080fd5b5061029d60048036038101906102989190611f2f565b610896565b6040516102aa9190611f9d565b60405180910390f35b6102cd60048036038101906102c891906121ac565b610947565b005b3480156102db57600080fd5b506102f660048036038101906102f191906121f5565b6109fd565b6040516103039190612231565b60405180910390f35b34801561031857600080fd5b50610321610ab4565b005b34801561032f57600080fd5b50610338610ac8565b6040516103459190611f9d565b60405180910390f35b34801561035a57600080fd5b50610363610af2565b6040516103709190611ed7565b60405180910390f35b34801561038557600080fd5b506103a0600480360381019061039b9190612278565b610b84565b005b3480156103ae57600080fd5b506103c960048036038101906103c49190612359565b610b9a565b005b3480156103d757600080fd5b506103e0610bfc565b6040516103ed91906124e8565b60405180910390f35b34801561040257600080fd5b5061041d60048036038101906104189190611f2f565b610cd5565b60405161042a9190611ed7565b60405180910390f35b34801561043f57600080fd5b5061045a6004803603810190610455919061250a565b610ce7565b6040516104679190611e23565b60405180910390f35b34801561047c57600080fd5b50610497600480360381019061049291906121f5565b610d7b565b005b60007f80ac58cd000000000000000000000000000000000000000000000000000000007bffffffffffffffffffffffffffffffffffffffffffffffffffffffff1916827bffffffffffffffffffffffffffffffffffffffffffffffffffffffff1916148061056457507f5b5e139f000000000000000000000000000000000000000000000000000000007bffffffffffffffffffffffffffffffffffffffffffffffffffffffff1916827bffffffffffffffffffffffffffffffffffffffffffffffffffffffff1916145b80610574575061057382610dfe565b5b9050919050565b60606000805461058a90612579565b80601f01602080910402602001604051908101604052809291908181526020018280546105b690612579565b80156106035780601f106105d857610100808354040283529160200191610603565b820191906000526020600020905b8154815290600101906020018083116105e657829003601f168201915b5050505050905090565b600061061882610e68565b6004600083815260200190815260200160002060009054906101000a900473ffffffffffffffffffffffffffffffffffffffff169050919050565b600061065e82610896565b90508073ffffffffffffffffffffffffffffffffffffffff168373ffffffffffffffffffffffffffffffffffffffff16036106ce576040517f08c379a00000000000000000000000000000000000000000000000000000000081526004016106c59061261c565b60405180910390fd5b8073ffffffffffffffffffffffffffffffffffffffff166106ed610eb3565b73ffffffffffffffffffffffffffffffffffffffff16148061071c575061071b81610716610eb3565b610ce7565b5b61075b576040517f08c379a0000000000000000000000000000000000000000000000000000000008152600401610752906126ae565b60405180910390fd5b6107658383610ebb565b505050565b61077b610775610eb3565b82610f74565b6107ba576040517f08c379a00000000000000000000000000000000000000000000000000000000081526004016107b190612740565b60405180910390fd5b6107c5838383611009565b505050565b600981815481106107da57600080fd5b9060005260206000200160009150905080546107f590612579565b80601f016020809104026020016040519081016040528092919081815260200182805461082190612579565b801561086e5780601f106108435761010080835404028352916020019161086e565b820191906000526020600020905b81548152906001019060200180831161085157829003601f168201915b505050505081565b61089183838360405180602001604052806000815250610b9a565b505050565b6000806002600084815260200190815260200160002060009054906101000a900473ffffffffffffffffffffffffffffffffffffffff169050600073ffffffffffffffffffffffffffffffffffffffff168173ffffffffffffffffffffffffffffffffffffffff160361093e576040517f08c379a0000000000000000000000000000000000000000000000000000000008152600401610935906127ac565b60405180910390fd5b80915050919050565b6509184e72a000341015610990576040517f08c379a000000000000000000000000000000000000000000000000000000000815260040161098790612818565b60405180910390fd5b600061099c600861126f565b90506109a8600861127d565b6109b23382611293565b6109bc81836112b1565b60096109c782610cd5565b9080600181540180825580915050600190039060005260206000200160009091909190915090816109f891906129e4565b505050565b60008073ffffffffffffffffffffffffffffffffffffffff168273ffffffffffffffffffffffffffffffffffffffff1603610a6d576040517f08c379a0000000000000000000000000000000000000000000000000000000008152600401610a6490612b28565b60405180910390fd5b600360008373ffffffffffffffffffffffffffffffffffffffff1673ffffffffffffffffffffffffffffffffffffffff168152602001908152602001600020549050919050565b610abc61131e565b610ac6600061139c565b565b6000600760009054906101000a900473ffffffffffffffffffffffffffffffffffffffff16905090565b606060018054610b0190612579565b80601f0160208091040260200160405190810160405280929190818152602001828054610b2d90612579565b8015610b7a5780601f10610b4f57610100808354040283529160200191610b7a565b820191906000526020600020905b815481529060010190602001808311610b5d57829003601f168201915b5050505050905090565b610b96610b8f610eb3565b8383611462565b5050565b610bab610ba5610eb3565b83610f74565b610bea576040517f08c379a0000000000000000000000000000000000000000000000000000000008152600401610be190612740565b60405180910390fd5b610bf6848484846115ce565b50505050565b60606009805480602002602001604051908101604052809291908181526020016000905b82821015610ccc578382906000526020600020018054610c3f90612579565b80601f0160208091040260200160405190810160405280929190818152602001828054610c6b90612579565b8015610cb85780601f10610c8d57610100808354040283529160200191610cb8565b820191906000526020600020905b815481529060010190602001808311610c9b57829003601f168201915b505050505081526020019060010190610c20565b50505050905090565b6060610ce08261162a565b9050919050565b6000600560008473ffffffffffffffffffffffffffffffffffffffff1673ffffffffffffffffffffffffffffffffffffffff16815260200190815260200160002060008373ffffffffffffffffffffffffffffffffffffffff1673ffffffffffffffffffffffffffffffffffffffff16815260200190815260200160002060009054906101000a900460ff16905092915050565b610d8361131e565b600073ffffffffffffffffffffffffffffffffffffffff168173ffffffffffffffffffffffffffffffffffffffff1603610df2576040517f08c379a0000000000000000000000000000000000000000000000000000000008152600401610de990612bba565b60405180910390fd5b610dfb8161139c565b50565b60007f01ffc9a7000000000000000000000000000000000000000000000000000000007bffffffffffffffffffffffffffffffffffffffffffffffffffffffff1916827bffffffffffffffffffffffffffffffffffffffffffffffffffffffff1916149050919050565b610e718161173c565b610eb0576040517f08c379a0000000000000000000000000000000000000000000000000000000008152600401610ea7906127ac565b60405180910390fd5b50565b600033905090565b816004600083815260200190815260200160002060006101000a81548173ffffffffffffffffffffffffffffffffffffffff021916908373ffffffffffffffffffffffffffffffffffffffff160217905550808273ffffffffffffffffffffffffffffffffffffffff16610f2e83610896565b73ffffffffffffffffffffffffffffffffffffffff167f8c5be1e5ebec7d5bd14f71427d1e84f3dd0314c0f7b2291e5b200ac8c7c3b92560405160405180910390a45050565b600080610f8083610896565b90508073ffffffffffffffffffffffffffffffffffffffff168473ffffffffffffffffffffffffffffffffffffffff161480610fc25750610fc18185610ce7565b5b8061100057508373ffffffffffffffffffffffffffffffffffffffff16610fe88461060d565b73ffffffffffffffffffffffffffffffffffffffff16145b91505092915050565b8273ffffffffffffffffffffffffffffffffffffffff1661102982610896565b73ffffffffffffffffffffffffffffffffffffffff161461107f576040517f08c379a000000000000000000000000000000000000000000000000000000000815260040161107690612c4c565b60405180910390fd5b600073ffffffffffffffffffffffffffffffffffffffff168273ffffffffffffffffffffffffffffffffffffffff16036110ee576040517f08c379a00000000000000000000000000000000000000000000000000000000081526004016110e590612cde565b60405180910390fd5b6110f98383836117a8565b611104600082610ebb565b6001600360008573ffffffffffffffffffffffffffffffffffffffff1673ffffffffffffffffffffffffffffffffffffffff16815260200190815260200160002060008282546111549190612d2d565b925050819055506001600360008473ffffffffffffffffffffffffffffffffffffffff1673ffffffffffffffffffffffffffffffffffffffff16815260200190815260200160002060008282546111ab9190612d61565b92505081905550816002600083815260200190815260200160002060006101000a81548173ffffffffffffffffffffffffffffffffffffffff021916908373ffffffffffffffffffffffffffffffffffffffff160217905550808273ffffffffffffffffffffffffffffffffffffffff168473ffffffffffffffffffffffffffffffffffffffff167fddf252ad1be2c89b69c2b068fc378daa952ba7f163c4a11628f55a4df523b3ef60405160405180910390a461126a8383836117ad565b505050565b600081600001549050919050565b6001816000016000828254019250508190555050565b6112ad8282604051806020016040528060008152506117b2565b5050565b6112ba8261173c565b6112f9576040517f08c379a00000000000000000000000000000000000000000000000000000000081526004016112f090612e29565b60405180910390fd5b8060066000848152602001908152602001600020908161131991906129e4565b505050565b611326610eb3565b73ffffffffffffffffffffffffffffffffffffffff16611344610ac8565b73ffffffffffffffffffffffffffffffffffffffff161461139a576040517f08c379a000000000000000000000000000000000000000000000000000000000815260040161139190612e95565b60405180910390fd5b565b6000600760009054906101000a900473ffffffffffffffffffffffffffffffffffffffff16905081600760006101000a81548173ffffffffffffffffffffffffffffffffffffffff021916908373ffffffffffffffffffffffffffffffffffffffff1602179055508173ffffffffffffffffffffffffffffffffffffffff168173ffffffffffffffffffffffffffffffffffffffff167f8be0079c531659141344cd1fd0a4f28419497f9722a3daafe3b4186f6b6457e060405160405180910390a35050565b8173ffffffffffffffffffffffffffffffffffffffff168373ffffffffffffffffffffffffffffffffffffffff16036114d0576040517f08c379a00000000000000000000000000000000000000000000000000000000081526004016114c790612f01565b60405180910390fd5b80600560008573ffffffffffffffffffffffffffffffffffffffff1673ffffffffffffffffffffffffffffffffffffffff16815260200190815260200160002060008473ffffffffffffffffffffffffffffffffffffffff1673ffffffffffffffffffffffffffffffffffffffff16815260200190815260200160002060006101000a81548160ff0219169083151502179055508173ffffffffffffffffffffffffffffffffffffffff168373ffffffffffffffffffffffffffffffffffffffff167f17307eab39ab6107e8899845ad3d59bd9653f200f220920489ca2b5937696c31836040516115c19190611e23565b60405180910390a3505050565b6115d9848484611009565b6115e58484848461180d565b611624576040517f08c379a000000000000000000000000000000000000000000000000000000000815260040161161b90612f93565b60405180910390fd5b50505050565b606061163582610e68565b600060066000848152602001908152602001600020805461165590612579565b80601f016020809104026020016040519081016040528092919081815260200182805461168190612579565b80156116ce5780601f106116a3576101008083540402835291602001916116ce565b820191906000526020600020905b8154815290600101906020018083116116b157829003601f168201915b5050505050905060006116df611994565b905060008151036116f4578192505050611737565b600082511115611729578082604051602001611711929190612fef565b60405160208183030381529060405292505050611737565b611732846119ab565b925050505b919050565b60008073ffffffffffffffffffffffffffffffffffffffff166002600084815260200190815260200160002060009054906101000a900473ffffffffffffffffffffffffffffffffffffffff1673ffffffffffffffffffffffffffffffffffffffff1614159050919050565b505050565b505050565b6117bc8383611a13565b6117c9600084848461180d565b611808576040517f08c379a00000000000000000000000000000000000000000000000000000000081526004016117ff90612f93565b60405180910390fd5b505050565b600061182e8473ffffffffffffffffffffffffffffffffffffffff16611bec565b15611987578373ffffffffffffffffffffffffffffffffffffffff1663150b7a02611857610eb3565b8786866040518563ffffffff1660e01b81526004016118799493929190613068565b6020604051808303816000875af19250505080156118b557506040513d601f19601f820116820180604052508101906118b291906130c9565b60015b611937573d80600081146118e5576040519150601f19603f3d011682016040523d82523d6000602084013e6118ea565b606091505b50600081510361192f576040517f08c379a000000000000000000000000000000000000000000000000000000000815260040161192690612f93565b60405180910390fd5b805181602001fd5b63150b7a0260e01b7bffffffffffffffffffffffffffffffffffffffffffffffffffffffff1916817bffffffffffffffffffffffffffffffffffffffffffffffffffffffff19161491505061198c565b600190505b949350505050565b606060405180602001604052806000815250905090565b60606119b682610e68565b60006119c0611994565b905060008151116119e05760405180602001604052806000815250611a0b565b806119ea84611c0f565b6040516020016119fb929190612fef565b6040516020818303038152906040525b915050919050565b600073ffffffffffffffffffffffffffffffffffffffff168273ffffffffffffffffffffffffffffffffffffffff1603611a82576040517f08c379a0000000000000000000000000000000000000000000000000000000008152600401611a7990613142565b60405180910390fd5b611a8b8161173c565b15611acb576040517f08c379a0000000000000000000000000000000000000000000000000000000008152600401611ac2906131ae565b60405180910390fd5b611ad7600083836117a8565b6001600360008473ffffffffffffffffffffffffffffffffffffffff1673ffffffffffffffffffffffffffffffffffffffff1681526020019081526020016000206000828254611b279190612d61565b92505081905550816002600083815260200190815260200160002060006101000a81548173ffffffffffffffffffffffffffffffffffffffff021916908373ffffffffffffffffffffffffffffffffffffffff160217905550808273ffffffffffffffffffffffffffffffffffffffff16600073ffffffffffffffffffffffffffffffffffffffff167fddf252ad1be2c89b69c2b068fc378daa952ba7f163c4a11628f55a4df523b3ef60405160405180910390a4611be8600083836117ad565b5050565b6000808273ffffffffffffffffffffffffffffffffffffffff163b119050919050565b606060008203611c56576040518060400160405280600181526020017f30000000000000000000000000000000000000000000000000000000000000008152509050611d6a565b600082905060005b60008214611c88578080611c71906131ce565b915050600a82611c819190613245565b9150611c5e565b60008167ffffffffffffffff811115611ca457611ca3612081565b5b6040519080825280601f01601f191660200182016040528015611cd65781602001600182028036833780820191505090505b5090505b60008514611d6357600182611cef9190612d2d565b9150600a85611cfe9190613276565b6030611d0a9190612d61565b60f81b818381518110611d2057611d1f6132a7565b5b60200101907effffffffffffffffffffffffffffffffffffffffffffffffffffffffffffff1916908160001a905350600a85611d5c9190613245565b9450611cda565b8093505050505b919050565b6000604051905090565b600080fd5b600080fd5b60007fffffffff0000000000000000000000000000000000000000000000000000000082169050919050565b611db881611d83565b8114611dc357600080fd5b50565b600081359050611dd581611daf565b92915050565b600060208284031215611df157611df0611d79565b5b6000611dff84828501611dc6565b91505092915050565b60008115159050919050565b611e1d81611e08565b82525050565b6000602082019050611e386000830184611e14565b92915050565b600081519050919050565b600082825260208201905092915050565b60005b83811015611e78578082015181840152602081019050611e5d565b83811115611e87576000848401525b50505050565b6000601f19601f8301169050919050565b6000611ea982611e3e565b611eb38185611e49565b9350611ec3818560208601611e5a565b611ecc81611e8d565b840191505092915050565b60006020820190508181036000830152611ef18184611e9e565b905092915050565b6000819050919050565b611f0c81611ef9565b8114611f1757600080fd5b50565b600081359050611f2981611f03565b92915050565b600060208284031215611f4557611f44611d79565b5b6000611f5384828501611f1a565b91505092915050565b600073ffffffffffffffffffffffffffffffffffffffff82169050919050565b6000611f8782611f5c565b9050919050565b611f9781611f7c565b82525050565b6000602082019050611fb26000830184611f8e565b92915050565b611fc181611f7c565b8114611fcc57600080fd5b50565b600081359050611fde81611fb8565b92915050565b60008060408385031215611ffb57611ffa611d79565b5b600061200985828601611fcf565b925050602061201a85828601611f1a565b9150509250929050565b60008060006060848603121561203d5761203c611d79565b5b600061204b86828701611fcf565b935050602061205c86828701611fcf565b925050604061206d86828701611f1a565b9150509250925092565b600080fd5b600080fd5b7f4e487b7100000000000000000000000000000000000000000000000000000000600052604160045260246000fd5b6120b982611e8d565b810181811067ffffffffffffffff821117156120d8576120d7612081565b5b80604052505050565b60006120eb611d6f565b90506120f782826120b0565b919050565b600067ffffffffffffffff82111561211757612116612081565b5b61212082611e8d565b9050602081019050919050565b82818337600083830152505050565b600061214f61214a846120fc565b6120e1565b90508281526020810184848401111561216b5761216a61207c565b5b61217684828561212d565b509392505050565b600082601f83011261219357612192612077565b5b81356121a384826020860161213c565b91505092915050565b6000602082840312156121c2576121c1611d79565b5b600082013567ffffffffffffffff8111156121e0576121df611d7e565b5b6121ec8482850161217e565b91505092915050565b60006020828403121561220b5761220a611d79565b5b600061221984828501611fcf565b91505092915050565b61222b81611ef9565b82525050565b60006020820190506122466000830184612222565b92915050565b61225581611e08565b811461226057600080fd5b50565b6000813590506122728161224c565b92915050565b6000806040838503121561228f5761228e611d79565b5b600061229d85828601611fcf565b92505060206122ae85828601612263565b9150509250929050565b600067ffffffffffffffff8211156122d3576122d2612081565b5b6122dc82611e8d565b9050602081019050919050565b60006122fc6122f7846122b8565b6120e1565b9050828152602081018484840111156123185761231761207c565b5b61232384828561212d565b509392505050565b600082601f8301126123405761233f612077565b5b81356123508482602086016122e9565b91505092915050565b6000806000806080858703121561237357612372611d79565b5b600061238187828801611fcf565b945050602061239287828801611fcf565b93505060406123a387828801611f1a565b925050606085013567ffffffffffffffff8111156123c4576123c3611d7e565b5b6123d08782880161232b565b91505092959194509250565b600081519050919050565b600082825260208201905092915050565b6000819050602082019050919050565b600082825260208201905092915050565b600061242482611e3e565b61242e8185612408565b935061243e818560208601611e5a565b61244781611e8d565b840191505092915050565b600061245e8383612419565b905092915050565b6000602082019050919050565b600061247e826123dc565b61248881856123e7565b93508360208202850161249a856123f8565b8060005b858110156124d657848403895281516124b78582612452565b94506124c283612466565b925060208a0199505060018101905061249e565b50829750879550505050505092915050565b600060208201905081810360008301526125028184612473565b905092915050565b6000806040838503121561252157612520611d79565b5b600061252f85828601611fcf565b925050602061254085828601611fcf565b9150509250929050565b7f4e487b7100000000000000000000000000000000000000000000000000000000600052602260045260246000fd5b6000600282049050600182168061259157607f821691505b6020821081036125a4576125a361254a565b5b50919050565b7f4552433732313a20617070726f76616c20746f2063757272656e74206f776e6560008201527f7200000000000000000000000000000000000000000000000000000000000000602082015250565b6000612606602183611e49565b9150612611826125aa565b604082019050919050565b60006020820190508181036000830152612635816125f9565b9050919050565b7f4552433732313a20617070726f76652063616c6c6572206973206e6f7420746f60008201527f6b656e206f776e6572206e6f7220617070726f76656420666f7220616c6c0000602082015250565b6000612698603e83611e49565b91506126a38261263c565b604082019050919050565b600060208201905081810360008301526126c78161268b565b9050919050565b7f4552433732313a2063616c6c6572206973206e6f7420746f6b656e206f776e6560008201527f72206e6f7220617070726f766564000000000000000000000000000000000000602082015250565b600061272a602e83611e49565b9150612735826126ce565b604082019050919050565b600060208201905081810360008301526127598161271d565b9050919050565b7f4552433732313a20696e76616c696420746f6b656e2049440000000000000000600082015250565b6000612796601883611e49565b91506127a182612760565b602082019050919050565b600060208201905081810360008301526127c581612789565b9050919050565b7f4e6f7420656e6f756768204554482073656e7400000000000000000000000000600082015250565b6000612802601383611e49565b915061280d826127cc565b602082019050919050565b60006020820190508181036000830152612831816127f5565b9050919050565b60008190508160005260206000209050919050565b60006020601f8301049050919050565b600082821b905092915050565b60006008830261289a7fffffffffffffffffffffffffffffffffffffffffffffffffffffffffffffffff8261285d565b6128a4868361285d565b95508019841693508086168417925050509392505050565b6000819050919050565b60006128e16128dc6128d784611ef9565b6128bc565b611ef9565b9050919050565b6000819050919050565b6128fb836128c6565b61290f612907826128e8565b84845461286a565b825550505050565b600090565b612924612917565b61292f8184846128f2565b505050565b5b818110156129535761294860008261291c565b600181019050612935565b5050565b601f8211156129985761296981612838565b6129728461284d565b81016020851015612981578190505b61299561298d8561284d565b830182612934565b50505b505050565b600082821c905092915050565b60006129bb6000198460080261299d565b1980831691505092915050565b60006129d483836129aa565b9150826002028217905092915050565b6129ed82611e3e565b67ffffffffffffffff811115612a0657612a05612081565b5b612a108254612579565b612a1b828285612957565b600060209050601f831160018114612a4e5760008415612a3c578287015190505b612a4685826129c8565b865550612aae565b601f198416612a5c86612838565b60005b82811015612a8457848901518255600182019150602085019450602081019050612a5f565b86831015612aa15784890151612a9d601f8916826129aa565b8355505b6001600288020188555050505b505050505050565b7f4552433732313a2061646472657373207a65726f206973206e6f74206120766160008201527f6c6964206f776e65720000000000000000000000000000000000000000000000602082015250565b6000612b12602983611e49565b9150612b1d82612ab6565b604082019050919050565b60006020820190508181036000830152612b4181612b05565b9050919050565b7f4f776e61626c653a206e6577206f776e657220697320746865207a65726f206160008201527f6464726573730000000000000000000000000000000000000000000000000000602082015250565b6000612ba4602683611e49565b9150612baf82612b48565b604082019050919050565b60006020820190508181036000830152612bd381612b97565b9050919050565b7f4552433732313a207472616e736665722066726f6d20696e636f72726563742060008201527f6f776e6572000000000000000000000000000000000000000000000000000000602082015250565b6000612c36602583611e49565b9150612c4182612bda565b604082019050919050565b60006020820190508181036000830152612c6581612c29565b9050919050565b7f4552433732313a207472616e7366657220746f20746865207a65726f2061646460008201527f7265737300000000000000000000000000000000000000000000000000000000602082015250565b6000612cc8602483611e49565b9150612cd382612c6c565b604082019050919050565b60006020820190508181036000830152612cf781612cbb565b9050919050565b7f4e487b7100000000000000000000000000000000000000000000000000000000600052601160045260246000fd5b6000612d3882611ef9565b9150612d4383611ef9565b925082821015612d5657612d55612cfe565b5b828203905092915050565b6000612d6c82611ef9565b9150612d7783611ef9565b9250827fffffffffffffffffffffffffffffffffffffffffffffffffffffffffffffffff03821115612dac57612dab612cfe565b5b828201905092915050565b7f45524337323155524953746f726167653a2055524920736574206f66206e6f6e60008201527f6578697374656e7420746f6b656e000000000000000000000000000000000000602082015250565b6000612e13602e83611e49565b9150612e1e82612db7565b604082019050919050565b60006020820190508181036000830152612e4281612e06565b9050919050565b7f4f776e61626c653a2063616c6c6572206973206e6f7420746865206f776e6572600082015250565b6000612e7f602083611e49565b9150612e8a82612e49565b602082019050919050565b60006020820190508181036000830152612eae81612e72565b9050919050565b7f4552433732313a20617070726f766520746f2063616c6c657200000000000000600082015250565b6000612eeb601983611e49565b9150612ef682612eb5565b602082019050919050565b60006020820190508181036000830152612f1a81612ede565b9050919050565b7f4552433732313a207472616e7366657220746f206e6f6e20455243373231526560008201527f63656976657220696d706c656d656e7465720000000000000000000000000000602082015250565b6000612f7d603283611e49565b9150612f8882612f21565b604082019050919050565b60006020820190508181036000830152612fac81612f70565b9050919050565b600081905092915050565b6000612fc982611e3e565b612fd38185612fb3565b9350612fe3818560208601611e5a565b80840191505092915050565b6000612ffb8285612fbe565b91506130078284612fbe565b91508190509392505050565b600081519050919050565b600082825260208201905092915050565b600061303a82613013565b613044818561301e565b9350613054818560208601611e5a565b61305d81611e8d565b840191505092915050565b600060808201905061307d6000830187611f8e565b61308a6020830186611f8e565b6130976040830185612222565b81810360608301526130a9818461302f565b905095945050505050565b6000815190506130c381611daf565b92915050565b6000602082840312156130df576130de611d79565b5b60006130ed848285016130b4565b91505092915050565b7f4552433732313a206d696e7420746f20746865207a65726f2061646472657373600082015250565b600061312c602083611e49565b9150613137826130f6565b602082019050919050565b6000602082019050818103600083015261315b8161311f565b9050919050565b7f4552433732313a20746f6b656e20616c7265616479206d696e74656400000000600082015250565b6000613198601c83611e49565b91506131a382613162565b602082019050919050565b600060208201905081810360008301526131c78161318b565b9050919050565b60006131d982611ef9565b91507fffffffffffffffffffffffffffffffffffffffffffffffffffffffffffffffff820361320b5761320a612cfe565b5b600182019050919050565b7f4e487b7100000000000000000000000000000000000000000000000000000000600052601260045260246000fd5b600061325082611ef9565b915061325b83611ef9565b92508261326b5761326a613216565b5b828204905092915050565b600061328182611ef9565b915061328c83611ef9565b92508261329c5761329b613216565b5b828206905092915050565b7f4e487b7100000000000000000000000000000000000000000000000000000000600052603260045260246000fdfea264697066735822122039deb84f1e1ac5f0da7df655a747089da2d21c4d3783d461e46333114a06daee64736f6c634300080f0033",
  "immutableReferences": {},
  "source": "// SPDX-License-Identifier: MIT\npragma solidity ^0.8.15;\n\nimport \"@openzeppelin/contracts/token/ERC721/ERC721.sol\";\nimport \"@openzeppelin/contracts/token/ERC721/extensions/ERC721URIStorage.sol\";\nimport \"@openzeppelin/contracts/access/Ownable.sol\";\nimport \"@openzeppelin/contracts/utils/Counters.sol\";\n\ncontract MyMoonBirds is ERC721, ERC721URIStorage, Ownable {\n    using Counters for Counters.Counter;\n\n    Counters.Counter private _tokenIdCounter;\n\n    string[] public nftURIs;\n\n    constructor() ERC721(\"MyMoonBirds\", \"MMB\") {}\n\n    function safeMint(string memory uri) public payable {\n        require(msg.value >= 0.00001 ether, \"Not enough ETH sent\");\n        uint256 tokenId = _tokenIdCounter.current();\n        _tokenIdCounter.increment();\n        _safeMint(msg.sender, tokenId);\n        _setTokenURI(tokenId, uri);\n\n        nftURIs.push(tokenURI(tokenId));\n    }\n\n    function getNftUris() public view returns (string[] memory) {\n        return nftURIs;\n    }\n\n    // The following functions are overrides required by Solidity.\n\n    function _burn(uint256 tokenId)\n        internal\n        override(ERC721, ERC721URIStorage)\n    {\n        super._burn(tokenId);\n    }\n\n    function tokenURI(uint256 tokenId)\n        public\n        view\n        override(ERC721, ERC721URIStorage)\n        returns (string memory)\n    {\n        return super.tokenURI(tokenId);\n    }\n}\n",
  "sourcePath": "/Users/davidrakosi/GitHub/bts-nft-drop-solidity/truffle-app/contracts/MyMoonBirds.sol",
  "compiler": {
    "name": "solc",
    "version": "0.8.15+commit.e14f2714.Emscripten.clang"
  },
  "schemaVersion": "3.4.9",
  "updatedAt": "2022-09-04T00:42:21.960Z",
  "networkType": "ethereum",
  "devdoc": {
    "kind": "dev",
    "methods": {
      "approve(address,uint256)": {
        "details": "See {IERC721-approve}."
      },
      "balanceOf(address)": {
        "details": "See {IERC721-balanceOf}."
      },
      "getApproved(uint256)": {
        "details": "See {IERC721-getApproved}."
      },
      "isApprovedForAll(address,address)": {
        "details": "See {IERC721-isApprovedForAll}."
      },
      "name()": {
        "details": "See {IERC721Metadata-name}."
      },
      "owner()": {
        "details": "Returns the address of the current owner."
      },
      "ownerOf(uint256)": {
        "details": "See {IERC721-ownerOf}."
      },
      "renounceOwnership()": {
        "details": "Leaves the contract without owner. It will not be possible to call `onlyOwner` functions anymore. Can only be called by the current owner. NOTE: Renouncing ownership will leave the contract without an owner, thereby removing any functionality that is only available to the owner."
      },
      "safeTransferFrom(address,address,uint256)": {
        "details": "See {IERC721-safeTransferFrom}."
      },
      "safeTransferFrom(address,address,uint256,bytes)": {
        "details": "See {IERC721-safeTransferFrom}."
      },
      "setApprovalForAll(address,bool)": {
        "details": "See {IERC721-setApprovalForAll}."
      },
      "supportsInterface(bytes4)": {
        "details": "See {IERC165-supportsInterface}."
      },
      "symbol()": {
        "details": "See {IERC721Metadata-symbol}."
      },
      "transferFrom(address,address,uint256)": {
        "details": "See {IERC721-transferFrom}."
      },
      "transferOwnership(address)": {
        "details": "Transfers ownership of the contract to a new account (`newOwner`). Can only be called by the current owner."
      }
    },
    "version": 1
  },
  "userdoc": {
    "kind": "user",
    "methods": {},
    "version": 1
  }
}